S0120000536C61766520636F64652E737265635C
S113000096C000009EC000009CC000009AC0000082
S113001098C0000096C0000094C0000092C0000088
S113002090C000008EC000008CC000008AC0000098
S113003088C0000086C0000084C0000082C00000A8
S113004080C000007EC000007CC000007AC00000B8
S113005078C0000076C0000074C0000072C00000C8
S113006070C000006EC000006CC000006AC00000D8
S113007068C0000066C0000064C0000062C00000E8
S113008060C000005EC000005CC000005AC00000F8
S113009058C0000056C0000054C0000052C0000008
S11300A050C000004EC000004CC000004AC0000018
S11300B048C0000046C0000044C0000042C0000028
S11300C040C000003EC000003CC000003AC0000038
S11300D038C0000036C0000034C0000032C0000048
S11300E030C0000001021102210231024102F40178
S11300F0F401F401F401F401F401F401F401F40154
S1130100F401F4015102550259025D026102F40145
S1130110F401F401F401F401F401F401F401F40133
S1130120F401F401650269026D0271027502112481
S11301301FBECFEFD1E2DEBFCDBF00E00CBF42D186
S1130140EBC15ECF823419F118F4813439F008958B
S11301508334B1F1843409F44CC00895413059F426
S113016021B181E090E002C0880F991F6A95E2F7FF
S1130170822B81B9089521B181E090E002C0880FFB
S1130180991F6A95E2F78095822381B908954130D9
S113019059F424B181E090E002C0880F991F6A9558
S11301A0E2F7822B84B9089524B181E090E002C083
S11301B0880F991F6A95E2F78095822384B9089580
S11301C0413059F427B181E090E002C0880F991FB3
S11301D06A95E2F7822B87B9089527B181E090E010
S11301E002C0880F991F6A95E2F78095822387B928
S11301F00895413059F42AB181E090E002C0880F9B
S1130200991F6A95E2F7822B8AB908952AB181E091
S113021090E002C0880F991F6A95E2F780958223C7
S11302208AB90895823419F118F4813439F00895A3
S11302308334B1F1843409F44CC00895413059F445
S113024022B181E090E002C0880F991F6A95E2F71D
S1130250822B82B9089522B181E090E002C0880F18
S1130260991F6A95E2F78095822382B908954130F7
S113027059F425B181E090E002C0880F991F6A9576
S1130280E2F7822B85B9089525B181E090E002C0A0
S1130290880F991F6A95E2F78095822385B908959E
S11302A0413059F428B181E090E002C0880F991FD1
S11302B06A95E2F7822B88B9089528B181E090E02D
S11302C002C0880F991F6A95E2F78095822388B946
S11302D00895413059F42BB181E090E002C0880FB9
S11302E0991F6A95E2F7822B8BB908952BB181E0AF
S11302F090E002C0880F991F6A95E2F780958223E7
S11303008BB908958234D9F018F4813431F04DC09A
S1130310833439F18434B9F148C020B181E090E0EC
S1130320062E02C0880F991F0A94E2F730E0822358
S1130330932302C0959587956A95E2F7089523B1B2
S113034081E090E0062E02C0880F991F0A94E2F71C
S113035030E08223932302C0959587956A95E2F74E
S1130360089526B181E090E0062E02C0880F991FFF
S11303700A94E2F730E08223932302C0959587958F
S11303806A95E2F7089529B181E090E0062E02C053
S1130390880F991F0A94E2F730E08223932302C066
S11303A0959587956A95E2F7089580E0089541E070
S11303B0C9CE089541E036CF089540E033CF089583
S11303C0A1CF089596D060E084E4F1DF64E082E494
S11303D0EEDF65E082E4EBDF66E082E4E8DF67E01D
S11303E082E4E5DFCFEFD1E08FEF88D090E0FC012D
S11303F07197E532F105C0F78827EE58FF4F8F4F0C
S113040083C064E082E4DCDF882339F064E082E4C2
S1130410D7DF813019F4CD2F01C0C0E08C2F6ED00E
S1130420E3CF65E082E4CCDF882339F065E082E441
S1130430C7DF813019F4CD2F01C0C0E08C2F5ED00E
S1130440D3CF66E082E4BCDF882339F066E082E43F
S1130450B7DF813019F4CD2F01C0C0E08C2F4ED00E
S1130460C3CF67E082E4ACDF882339F067E082E43D
S1130470A7DF813019F4CD2F01C0C0E08C2F3ED00E
S1130480B3CF60E084E49CDF882339F060E084E447
S113049097DF813019F4CD2F01C0C0E08C2F2ED00E
S11304A0A3CF64E082E486DF9FCF65E082E482DF4D
S11304B09BCF66E082E47EDF97CF67E082E47ADF59
S11304C093CF60E084E476DF8FCF64E082E475DF6D
S11304D08BCF65E082E471DF87CF66E082E46DDF75
S11304E083CF67E082E469DF7FCF60E084E465DF87
S11304F07BCF239A8CB580648CBD08958EBD0DB4DA
S113050007FEFDCF8EB50895EE0FFF1F881F8BBF2A
S10F05100790F691E02D1994F894FFCFA9
S9030000FC
